{
  "_format": "hh-sol-artifact-1",
  "contractName": "Voting",
  "sourceName": "contracts/Voting.sol",
  "abi": [
    {
      "inputs": [],
      "stateMutability": "nonpayable",
      "type": "constructor"
    },
    {
      "anonymous": false,
      "inputs": [
        {
          "indexed": true,
          "internalType": "uint256",
          "name": "candidateId",
          "type": "uint256"
        },
        {
          "indexed": false,
          "internalType": "string",
          "name": "name",
          "type": "string"
        },
        {
          "indexed": false,
          "internalType": "string",
          "name": "party",
          "type": "string"
        }
      ],
      "name": "CandidateAdded",
      "type": "event"
    },
    {
      "anonymous": false,
      "inputs": [
        {
          "indexed": true,
          "internalType": "address",
          "name": "voter",
          "type": "address"
        },
        {
          "indexed": true,
          "internalType": "uint256",
          "name": "candidateId",
          "type": "uint256"
        }
      ],
      "name": "Voted",
      "type": "event"
    },
    {
      "inputs": [
        {
          "internalType": "string",
          "name": "_name",
          "type": "string"
        },
        {
          "internalType": "string",
          "name": "_party",
          "type": "string"
        }
      ],
      "name": "addCandidate",
      "outputs": [],
      "stateMutability": "nonpayable",
      "type": "function"
    },
    {
      "inputs": [
        {
          "internalType": "uint256",
          "name": "",
          "type": "uint256"
        }
      ],
      "name": "candidates",
      "outputs": [
        {
          "internalType": "uint256",
          "name": "id",
          "type": "uint256"
        },
        {
          "internalType": "string",
          "name": "name",
          "type": "string"
        },
        {
          "internalType": "string",
          "name": "party",
          "type": "string"
        },
        {
          "internalType": "uint256",
          "name": "voteCount",
          "type": "uint256"
        }
      ],
      "stateMutability": "view",
      "type": "function"
    },
    {
      "inputs": [],
      "name": "candidatesCount",
      "outputs": [
        {
          "internalType": "uint256",
          "name": "",
          "type": "uint256"
        }
      ],
      "stateMutability": "view",
      "type": "function"
    },
    {
      "inputs": [
        {
          "internalType": "uint256",
          "name": "_candidateId",
          "type": "uint256"
        }
      ],
      "name": "getCandidate",
      "outputs": [
        {
          "internalType": "string",
          "name": "",
          "type": "string"
        },
        {
          "internalType": "string",
          "name": "",
          "type": "string"
        },
        {
          "internalType": "uint256",
          "name": "",
          "type": "uint256"
        }
      ],
      "stateMutability": "view",
      "type": "function"
    },
    {
      "inputs": [
        {
          "internalType": "address",
          "name": "",
          "type": "address"
        }
      ],
      "name": "hasVoted",
      "outputs": [
        {
          "internalType": "bool",
          "name": "",
          "type": "bool"
        }
      ],
      "stateMutability": "view",
      "type": "function"
    },
    {
      "inputs": [
        {
          "internalType": "uint256",
          "name": "_candidateId",
          "type": "uint256"
        }
      ],
      "name": "vote",
      "outputs": [],
      "stateMutability": "nonpayable",
      "type": "function"
    }
  ],
  "bytecode": "0x608060405234801561001057600080fd5b5061006e6040518060400160405280601781526020017f5072616b617368204b617261742028696e746572696d290000000000000000008152506040518060600160405280602281526020016116e6602291396101e160201b60201c565b6100e86040518060400160405280601281526020017f4d616c6c696b61726a756e204b686172676500000000000000000000000000008152506040518060400160405280601e81526020017f496e6469616e204e6174696f6e616c20436f6e67726573732028494e432900008152506101e160201b60201c565b6101626040518060400160405280600b81526020017f4a2e20502e204e616464610000000000000000000000000000000000000000008152506040518060400160405280601c81526020017f426861726174697961204a616e6174612050617274792028424a5029000000008152506101e160201b60201c565b6101dc6040518060400160405280600f81526020017f417276696e64204b656a726977616c00000000000000000000000000000000008152506040518060400160405280601581526020017f41616d204161646d6920506172747920284141502900000000000000000000008152506101e160201b60201c565b610709565b600260008154809291906101f4906102ed565b91905055506040518060800160405280600254815260200183815260200182815260200160008152506000806002548152602001908152602001600020600082015181600001556020820151816001019081610250919061057b565b506040820151816002019081610266919061057b565b50606082015181600301559050506002547fe64f834082661dd9ed89427b87edb6270fd6dad17198b0938f0edd058914c87f83836040516102a89291906106d2565b60405180910390a25050565b7f4e487b7100000000000000000000000000000000000000000000000000000000600052601160045260246000fd5b6000819050919050565b60006102f8826102e3565b91507fffffffffffffffffffffffffffffffffffffffffffffffffffffffffffffffff820361032a576103296102b4565b5b600182019050919050565b600081519050919050565b7f4e487b7100000000000000000000000000000000000000000000000000000000600052604160045260246000fd5b7f4e487b7100000000000000000000000000000000000000000000000000000000600052602260045260246000fd5b600060028204905060018216806103b657607f821691505b6020821081036103c9576103c861036f565b5b50919050565b60008190508160005260206000209050919050565b60006020601f8301049050919050565b600082821b905092915050565b6000600883026104317fffffffffffffffffffffffffffffffffffffffffffffffffffffffffffffffff826103f4565b61043b86836103f4565b95508019841693508086168417925050509392505050565b6000819050919050565b600061047861047361046e846102e3565b610453565b6102e3565b9050919050565b6000819050919050565b6104928361045d565b6104a661049e8261047f565b848454610401565b825550505050565b600090565b6104bb6104ae565b6104c6818484610489565b505050565b5b818110156104ea576104df6000826104b3565b6001810190506104cc565b5050565b601f82111561052f57610500816103cf565b610509846103e4565b81016020851015610518578190505b61052c610524856103e4565b8301826104cb565b50505b505050565b600082821c905092915050565b600061055260001984600802610534565b1980831691505092915050565b600061056b8383610541565b9150826002028217905092915050565b61058482610335565b67ffffffffffffffff81111561059d5761059c610340565b5b6105a7825461039e565b6105b28282856104ee565b600060209050601f8311600181146105e557600084156105d3578287015190505b6105dd858261055f565b865550610645565b601f1984166105f3866103cf565b60005b8281101561061b578489015182556001820191506020850194506020810190506105f6565b868310156106385784890151610634601f891682610541565b8355505b6001600288020188555050505b505050505050565b600082825260208201905092915050565b60005b8381101561067c578082015181840152602081019050610661565b60008484015250505050565b6000601f19601f8301169050919050565b60006106a482610335565b6106ae818561064d565b93506106be81856020860161065e565b6106c781610688565b840191505092915050565b600060408201905081810360008301526106ec8185610699565b905081810360208301526107008184610699565b90509392505050565b610fce806107186000396000f3fe608060405234801561001057600080fd5b50600436106100625760003560e01c80630121b93f1461006757806309eef43e1461008357806326541b56146100b35780632d35a8a2146100cf5780633477ee2e146100ed57806335b8e82014610120575b600080fd5b610081600480360381019061007c9190610747565b610152565b005b61009d600480360381019061009891906107d2565b6102f9565b6040516100aa919061081a565b60405180910390f35b6100cd60048036038101906100c8919061097b565b610319565b005b6100d76103ec565b6040516100e49190610a02565b60405180910390f35b61010760048036038101906101029190610747565b6103f2565b6040516101179493929190610a9c565b60405180910390f35b61013a60048036038101906101359190610747565b610532565b60405161014993929190610aef565b60405180910390f35b600160003373ffffffffffffffffffffffffffffffffffffffff1673ffffffffffffffffffffffffffffffffffffffff16815260200190815260200160002060009054906101000a900460ff16156101df576040517f08c379a00000000000000000000000000000000000000000000000000000000081526004016101d690610b80565b60405180910390fd5b6000811180156101f157506002548111155b610230576040517f08c379a000000000000000000000000000000000000000000000000000000000815260040161022790610bec565b60405180910390fd5b60018060003373ffffffffffffffffffffffffffffffffffffffff1673ffffffffffffffffffffffffffffffffffffffff16815260200190815260200160002060006101000a81548160ff02191690831515021790555060008082815260200190815260200160002060030160008154809291906102ad90610c3b565b9190505550803373ffffffffffffffffffffffffffffffffffffffff167f4d99b957a2bc29a30ebd96a7be8e68fe50a3c701db28a91436490b7d53870ca460405160405180910390a350565b60016020528060005260406000206000915054906101000a900460ff1681565b6002600081548092919061032c90610c3b565b919050555060405180608001604052806002548152602001838152602001828152602001600081525060008060025481526020019081526020016000206000820151816000015560208201518160010190816103889190610e8f565b50604082015181600201908161039e9190610e8f565b50606082015181600301559050506002547fe64f834082661dd9ed89427b87edb6270fd6dad17198b0938f0edd058914c87f83836040516103e0929190610f61565b60405180910390a25050565b60025481565b600060205280600052604060002060009150905080600001549080600101805461041b90610cb2565b80601f016020809104026020016040519081016040528092919081815260200182805461044790610cb2565b80156104945780601f1061046957610100808354040283529160200191610494565b820191906000526020600020905b81548152906001019060200180831161047757829003601f168201915b5050505050908060020180546104a990610cb2565b80601f01602080910402602001604051908101604052809291908181526020018280546104d590610cb2565b80156105225780601f106104f757610100808354040283529160200191610522565b820191906000526020600020905b81548152906001019060200180831161050557829003601f168201915b5050505050908060030154905084565b6060806000808411801561054857506002548411155b610587576040517f08c379a000000000000000000000000000000000000000000000000000000000815260040161057e90610bec565b60405180910390fd5b6000806000868152602001908152602001600020604051806080016040529081600082015481526020016001820180546105c090610cb2565b80601f01602080910402602001604051908101604052809291908181526020018280546105ec90610cb2565b80156106395780601f1061060e57610100808354040283529160200191610639565b820191906000526020600020905b81548152906001019060200180831161061c57829003601f168201915b5050505050815260200160028201805461065290610cb2565b80601f016020809104026020016040519081016040528092919081815260200182805461067e90610cb2565b80156106cb5780601f106106a0576101008083540402835291602001916106cb565b820191906000526020600020905b8154815290600101906020018083116106ae57829003601f168201915b505050505081526020016003820154815250509050806020015181604001518260600151935093509350509193909250565b6000604051905090565b600080fd5b600080fd5b6000819050919050565b61072481610711565b811461072f57600080fd5b50565b6000813590506107418161071b565b92915050565b60006020828403121561075d5761075c610707565b5b600061076b84828501610732565b91505092915050565b600073ffffffffffffffffffffffffffffffffffffffff82169050919050565b600061079f82610774565b9050919050565b6107af81610794565b81146107ba57600080fd5b50565b6000813590506107cc816107a6565b92915050565b6000602082840312156107e8576107e7610707565b5b60006107f6848285016107bd565b91505092915050565b60008115159050919050565b610814816107ff565b82525050565b600060208201905061082f600083018461080b565b92915050565b600080fd5b600080fd5b6000601f19601f8301169050919050565b7f4e487b7100000000000000000000000000000000000000000000000000000000600052604160045260246000fd5b6108888261083f565b810181811067ffffffffffffffff821117156108a7576108a6610850565b5b80604052505050565b60006108ba6106fd565b90506108c6828261087f565b919050565b600067ffffffffffffffff8211156108e6576108e5610850565b5b6108ef8261083f565b9050602081019050919050565b82818337600083830152505050565b600061091e610919846108cb565b6108b0565b90508281526020810184848401111561093a5761093961083a565b5b6109458482856108fc565b509392505050565b600082601f83011261096257610961610835565b5b813561097284826020860161090b565b91505092915050565b6000806040838503121561099257610991610707565b5b600083013567ffffffffffffffff8111156109b0576109af61070c565b5b6109bc8582860161094d565b925050602083013567ffffffffffffffff8111156109dd576109dc61070c565b5b6109e98582860161094d565b9150509250929050565b6109fc81610711565b82525050565b6000602082019050610a1760008301846109f3565b92915050565b600081519050919050565b600082825260208201905092915050565b60005b83811015610a57578082015181840152602081019050610a3c565b60008484015250505050565b6000610a6e82610a1d565b610a788185610a28565b9350610a88818560208601610a39565b610a918161083f565b840191505092915050565b6000608082019050610ab160008301876109f3565b8181036020830152610ac38186610a63565b90508181036040830152610ad78185610a63565b9050610ae660608301846109f3565b95945050505050565b60006060820190508181036000830152610b098186610a63565b90508181036020830152610b1d8185610a63565b9050610b2c60408301846109f3565b949350505050565b7f596f75206861766520616c726561647920766f7465642e000000000000000000600082015250565b6000610b6a601783610a28565b9150610b7582610b34565b602082019050919050565b60006020820190508181036000830152610b9981610b5d565b9050919050565b7f496e76616c69642063616e6469646174652049442e0000000000000000000000600082015250565b6000610bd6601583610a28565b9150610be182610ba0565b602082019050919050565b60006020820190508181036000830152610c0581610bc9565b9050919050565b7f4e487b7100000000000000000000000000000000000000000000000000000000600052601160045260246000fd5b6000610c4682610711565b91507fffffffffffffffffffffffffffffffffffffffffffffffffffffffffffffffff8203610c7857610c77610c0c565b5b600182019050919050565b7f4e487b7100000000000000000000000000000000000000000000000000000000600052602260045260246000fd5b60006002820490506001821680610cca57607f821691505b602082108103610cdd57610cdc610c83565b5b50919050565b60008190508160005260206000209050919050565b60006020601f8301049050919050565b600082821b905092915050565b600060088302610d457fffffffffffffffffffffffffffffffffffffffffffffffffffffffffffffffff82610d08565b610d4f8683610d08565b95508019841693508086168417925050509392505050565b6000819050919050565b6000610d8c610d87610d8284610711565b610d67565b610711565b9050919050565b6000819050919050565b610da683610d71565b610dba610db282610d93565b848454610d15565b825550505050565b600090565b610dcf610dc2565b610dda818484610d9d565b505050565b5b81811015610dfe57610df3600082610dc7565b600181019050610de0565b5050565b601f821115610e4357610e1481610ce3565b610e1d84610cf8565b81016020851015610e2c578190505b610e40610e3885610cf8565b830182610ddf565b50505b505050565b600082821c905092915050565b6000610e6660001984600802610e48565b1980831691505092915050565b6000610e7f8383610e55565b9150826002028217905092915050565b610e9882610a1d565b67ffffffffffffffff811115610eb157610eb0610850565b5b610ebb8254610cb2565b610ec6828285610e02565b600060209050601f831160018114610ef95760008415610ee7578287015190505b610ef18582610e73565b865550610f59565b601f198416610f0786610ce3565b60005b82811015610f2f57848901518255600182019150602085019450602081019050610f0a565b86831015610f4c5784890151610f48601f891682610e55565b8355505b6001600288020188555050505b505050505050565b60006040820190508181036000830152610f7b8185610a63565b90508181036020830152610f8f8184610a63565b9050939250505056fea2646970667358221220b8713f6f4e860340e438bee4ad6ca7b28d5b096121e87541a5dffda149329d1b64736f6c634300081c0033436f6d6d756e697374205061727479206f6620496e64696120284d61727869737429",
  "linkReferences": {},
  "deployedLinkReferences": {}
}